{
  "contractName": "USDTStaking",
  "abi": [
    {
      "inputs": [
        {
          "internalType": "address",
          "name": "_usdtTokenAddress",
          "type": "address"
        }
      ],
      "stateMutability": "nonpayable",
      "type": "constructor"
    },
    {
      "anonymous": false,
      "inputs": [
        {
          "indexed": true,
          "internalType": "address",
          "name": "from",
          "type": "address"
        },
        {
          "indexed": true,
          "internalType": "address",
          "name": "to",
          "type": "address"
        },
        {
          "indexed": false,
          "internalType": "uint256",
          "name": "amount",
          "type": "uint256"
        }
      ],
      "name": "BalanceTransferred",
      "type": "event"
    },
    {
      "anonymous": false,
      "inputs": [
        {
          "indexed": true,
          "internalType": "address",
          "name": "user",
          "type": "address"
        },
        {
          "indexed": false,
          "internalType": "uint256",
          "name": "amount",
          "type": "uint256"
        }
      ],
      "name": "Staked",
      "type": "event"
    },
    {
      "anonymous": false,
      "inputs": [
        {
          "indexed": true,
          "internalType": "address",
          "name": "oldToken",
          "type": "address"
        },
        {
          "indexed": true,
          "internalType": "address",
          "name": "newToken",
          "type": "address"
        }
      ],
      "name": "USDTTokenUpdated",
      "type": "event"
    },
    {
      "anonymous": false,
      "inputs": [
        {
          "indexed": true,
          "internalType": "address",
          "name": "user",
          "type": "address"
        },
        {
          "indexed": false,
          "internalType": "uint256",
          "name": "amount",
          "type": "uint256"
        }
      ],
      "name": "Withdrawn",
      "type": "event"
    },
    {
      "inputs": [],
      "name": "owner",
      "outputs": [
        {
          "internalType": "address",
          "name": "",
          "type": "address"
        }
      ],
      "stateMutability": "view",
      "type": "function"
    },
    {
      "inputs": [],
      "name": "totalStaked",
      "outputs": [
        {
          "internalType": "uint256",
          "name": "",
          "type": "uint256"
        }
      ],
      "stateMutability": "view",
      "type": "function"
    },
    {
      "inputs": [],
      "name": "usdtToken",
      "outputs": [
        {
          "internalType": "contract IERC20",
          "name": "",
          "type": "address"
        }
      ],
      "stateMutability": "view",
      "type": "function"
    },
    {
      "inputs": [
        {
          "internalType": "uint256",
          "name": "amount",
          "type": "uint256"
        }
      ],
      "name": "stakeUSDT",
      "outputs": [],
      "stateMutability": "nonpayable",
      "type": "function"
    },
    {
      "inputs": [],
      "name": "getBalance",
      "outputs": [
        {
          "internalType": "uint256",
          "name": "",
          "type": "uint256"
        }
      ],
      "stateMutability": "view",
      "type": "function"
    },
    {
      "inputs": [
        {
          "internalType": "address",
          "name": "user",
          "type": "address"
        }
      ],
      "name": "getBalanceOf",
      "outputs": [
        {
          "internalType": "uint256",
          "name": "",
          "type": "uint256"
        }
      ],
      "stateMutability": "view",
      "type": "function"
    },
    {
      "inputs": [
        {
          "internalType": "address",
          "name": "to",
          "type": "address"
        },
        {
          "internalType": "uint256",
          "name": "amount",
          "type": "uint256"
        }
      ],
      "name": "transferBalance",
      "outputs": [],
      "stateMutability": "nonpayable",
      "type": "function"
    },
    {
      "inputs": [
        {
          "internalType": "uint256",
          "name": "amount",
          "type": "uint256"
        }
      ],
      "name": "withdraw",
      "outputs": [],
      "stateMutability": "nonpayable",
      "type": "function"
    },
    {
      "inputs": [],
      "name": "withdrawAll",
      "outputs": [],
      "stateMutability": "nonpayable",
      "type": "function"
    },
    {
      "inputs": [],
      "name": "getTotalStaked",
      "outputs": [
        {
          "internalType": "uint256",
          "name": "",
          "type": "uint256"
        }
      ],
      "stateMutability": "view",
      "type": "function"
    },
    {
      "inputs": [],
      "name": "getContractUSDTBalance",
      "outputs": [
        {
          "internalType": "uint256",
          "name": "",
          "type": "uint256"
        }
      ],
      "stateMutability": "view",
      "type": "function"
    },
    {
      "inputs": [
        {
          "internalType": "address",
          "name": "user",
          "type": "address"
        }
      ],
      "name": "getUserUSDTBalance",
      "outputs": [
        {
          "internalType": "uint256",
          "name": "",
          "type": "uint256"
        }
      ],
      "stateMutability": "view",
      "type": "function"
    },
    {
      "inputs": [
        {
          "internalType": "address",
          "name": "user",
          "type": "address"
        }
      ],
      "name": "getUserUSDTAllowance",
      "outputs": [
        {
          "internalType": "uint256",
          "name": "",
          "type": "uint256"
        }
      ],
      "stateMutability": "view",
      "type": "function"
    }
  ],
  "bytecode": "0x60806040523480156200001157600080fd5b5060405162001bee38038062001bee83398181016040528101906200003791906200019b565b600073ffffffffffffffffffffffffffffffffffffffff168173ffffffffffffffffffffffffffffffffffffffff1603620000a9576040517f08c379a0000000000000000000000000000000000000000000000000000000008152600401620000a0906200022e565b60405180910390fd5b806000806101000a81548173ffffffffffffffffffffffffffffffffffffffff021916908373ffffffffffffffffffffffffffffffffffffffff16021790555033600260006101000a81548173ffffffffffffffffffffffffffffffffffffffff021916908373ffffffffffffffffffffffffffffffffffffffff1602179055505062000250565b600080fd5b600073ffffffffffffffffffffffffffffffffffffffff82169050919050565b6000620001638262000136565b9050919050565b620001758162000156565b81146200018157600080fd5b50565b60008151905062000195816200016a565b92915050565b600060208284031215620001b457620001b362000131565b5b6000620001c48482850162000184565b91505092915050565b600082825260208201905092915050565b7f496e76616c6964205553445420746f6b656e2061646472657373000000000000600082015250565b600062000216601a83620001cd565b91506200022382620001de565b602082019050919050565b60006020820190508181036000830152620002498162000207565b9050919050565b61198e80620002606000396000f3fe608060405234801561001057600080fd5b50600436106100ec576000357c01000000000000000000000000000000000000000000000000000000009004806387b09ba6116100a9578063a330530a11610083578063a330530a146101f7578063a98ad46c14610227578063c8f7604014610245578063db1a881714610263576100ec565b806387b09ba61461018d5780638da5cb5b146101a95780639b96eece146101c7576100ec565b80630917e776146100f157806312065fe01461010f5780632e1a7d4d1461012d57806356a6d9ef14610149578063817b1cd214610165578063853828b614610183575b600080fd5b6100f9610293565b6040516101069190611212565b60405180910390f35b61011761029d565b6040516101249190611212565b60405180910390f35b6101476004803603810190610142919061125e565b6102e4565b005b610163600480360381019061015e91906112e9565b610566565b005b61016d61086f565b60405161017a9190611212565b60405180910390f35b61018b610875565b005b6101a760048036038101906101a2919061125e565b610aa4565b005b6101b1610e96565b6040516101be9190611338565b60405180910390f35b6101e160048036038101906101dc9190611353565b610ebc565b6040516101ee9190611212565b60405180910390f35b610211600480360381019061020c9190611353565b610f95565b60405161021e9190611212565b60405180910390f35b61022f611055565b60405161023c91906113df565b60405180910390f35b61024d611079565b60405161025a9190611212565b60405180910390f35b61027d60048036038101906102789190611353565b611137565b60405161028a9190611212565b60405180910390f35b6000600354905090565b6000600160003373ffffffffffffffffffffffffffffffffffffffff1673ffffffffffffffffffffffffffffffffffffffff16815260200190815260200160002054905090565b8080600160003373ffffffffffffffffffffffffffffffffffffffff1673ffffffffffffffffffffffffffffffffffffffff168152602001908152602001600020541015610367576040517f08c379a000000000000000000000000000000000000000000000000000000000815260040161035e90611457565b60405180910390fd5b81600081116103ab576040517f08c379a00000000000000000000000000000000000000000000000000000000081526004016103a2906114c3565b60405180910390fd5b82600160003373ffffffffffffffffffffffffffffffffffffffff1673ffffffffffffffffffffffffffffffffffffffff16815260200190815260200160002060008282546103fa9190611512565b9250508190555082600360008282546104139190611512565b9250508190555060008054906101000a900473ffffffffffffffffffffffffffffffffffffffff1673ffffffffffffffffffffffffffffffffffffffff1663a9059cbb33856040518363ffffffff167c0100000000000000000000000000000000000000000000000000000000028152600401610491929190611546565b6020604051808303816000875af11580156104b0573d6000803e3d6000fd5b505050506040513d601f19601f820116820180604052508101906104d491906115a7565b610513576040517f08c379a000000000000000000000000000000000000000000000000000000000815260040161050a90611620565b60405180910390fd5b3373ffffffffffffffffffffffffffffffffffffffff167f7084f5476618d8e60b11ef0d7d3f06914655adb8793e28ff7f018d4c76d505d5846040516105599190611212565b60405180910390a2505050565b8080600160003373ffffffffffffffffffffffffffffffffffffffff1673ffffffffffffffffffffffffffffffffffffffff1681526020019081526020016000205410156105e9576040517f08c379a00000000000000000000000000000000000000000000000000000000081526004016105e090611457565b60405180910390fd5b816000811161062d576040517f08c379a0000000000000000000000000000000000000000000000000000000008152600401610624906114c3565b60405180910390fd5b600073ffffffffffffffffffffffffffffffffffffffff168473ffffffffffffffffffffffffffffffffffffffff160361069c576040517f08c379a00000000000000000000000000000000000000000000000000000000081526004016106939061168c565b60405180910390fd5b82600160003373ffffffffffffffffffffffffffffffffffffffff1673ffffffffffffffffffffffffffffffffffffffff16815260200190815260200160002060008282546106eb9190611512565b9250508190555082600360008282546107049190611512565b9250508190555060008054906101000a900473ffffffffffffffffffffffffffffffffffffffff1673ffffffffffffffffffffffffffffffffffffffff1663a9059cbb85856040518363ffffffff167c0100000000000000000000000000000000000000000000000000000000028152600401610782929190611546565b6020604051808303816000875af11580156107a1573d6000803e3d6000fd5b505050506040513d601f19601f820116820180604052508101906107c591906115a7565b610804576040517f08c379a00000000000000000000000000000000000000000000000000000000081526004016107fb90611620565b60405180910390fd5b8373ffffffffffffffffffffffffffffffffffffffff163373ffffffffffffffffffffffffffffffffffffffff167f4163d0b06696468b3d7903f482bcd0097bd38a9a9086157479fd6c6561d24261856040516108619190611212565b60405180910390a350505050565b60035481565b6000600160003373ffffffffffffffffffffffffffffffffffffffff1673ffffffffffffffffffffffffffffffffffffffff168152602001908152602001600020549050600081116108fc576040517f08c379a00000000000000000000000000000000000000000000000000000000081526004016108f3906116f8565b60405180910390fd5b6000600160003373ffffffffffffffffffffffffffffffffffffffff1673ffffffffffffffffffffffffffffffffffffffff1681526020019081526020016000208190555080600360008282546109539190611512565b9250508190555060008054906101000a900473ffffffffffffffffffffffffffffffffffffffff1673ffffffffffffffffffffffffffffffffffffffff1663a9059cbb33836040518363ffffffff167c01000000000000000000000000000000000000000000000000000000000281526004016109d1929190611546565b6020604051808303816000875af11580156109f0573d6000803e3d6000fd5b505050506040513d601f19601f82011682018060405250810190610a1491906115a7565b610a53576040517f08c379a0000000000000000000000000000000000000000000000000000000008152600401610a4a90611620565b60405180910390fd5b3373ffffffffffffffffffffffffffffffffffffffff167f7084f5476618d8e60b11ef0d7d3f06914655adb8793e28ff7f018d4c76d505d582604051610a999190611212565b60405180910390a250565b8060008111610ae8576040517f08c379a0000000000000000000000000000000000000000000000000000000008152600401610adf906114c3565b60405180910390fd5b8160008054906101000a900473ffffffffffffffffffffffffffffffffffffffff1673ffffffffffffffffffffffffffffffffffffffff166370a08231336040518263ffffffff167c0100000000000000000000000000000000000000000000000000000000028152600401610b5e9190611338565b602060405180830381865afa158015610b7b573d6000803e3d6000fd5b505050506040513d601f19601f82011682018060405250810190610b9f919061172d565b1015610be0576040517f08c379a0000000000000000000000000000000000000000000000000000000008152600401610bd7906117a6565b60405180910390fd5b8160008054906101000a900473ffffffffffffffffffffffffffffffffffffffff1673ffffffffffffffffffffffffffffffffffffffff1663dd62ed3e33306040518363ffffffff167c0100000000000000000000000000000000000000000000000000000000028152600401610c589291906117c6565b602060405180830381865afa158015610c75573d6000803e3d6000fd5b505050506040513d601f19601f82011682018060405250810190610c99919061172d565b1015610cda576040517f08c379a0000000000000000000000000000000000000000000000000000000008152600401610cd19061183b565b60405180910390fd5b60008054906101000a900473ffffffffffffffffffffffffffffffffffffffff1673ffffffffffffffffffffffffffffffffffffffff166323b872dd3330856040518463ffffffff167c0100000000000000000000000000000000000000000000000000000000028152600401610d539392919061185b565b6020604051808303816000875af1158015610d72573d6000803e3d6000fd5b505050506040513d601f19601f82011682018060405250810190610d9691906115a7565b610dd5576040517f08c379a0000000000000000000000000000000000000000000000000000000008152600401610dcc90611620565b60405180910390fd5b81600160003373ffffffffffffffffffffffffffffffffffffffff1673ffffffffffffffffffffffffffffffffffffffff1681526020019081526020016000206000828254610e249190611892565b925050819055508160036000828254610e3d9190611892565b925050819055503373ffffffffffffffffffffffffffffffffffffffff167f9e71bc8eea02a63969f509818f2dafb9254532904319f9dbda79b67bd34a5f3d83604051610e8a9190611212565b60405180910390a25050565b600260009054906101000a900473ffffffffffffffffffffffffffffffffffffffff1681565b6000600260009054906101000a900473ffffffffffffffffffffffffffffffffffffffff1673ffffffffffffffffffffffffffffffffffffffff163373ffffffffffffffffffffffffffffffffffffffff1614610f4e576040517f08c379a0000000000000000000000000000000000000000000000000000000008152600401610f4590611938565b60405180910390fd5b600160008373ffffffffffffffffffffffffffffffffffffffff1673ffffffffffffffffffffffffffffffffffffffff168152602001908152602001600020549050919050565b60008060009054906101000a900473ffffffffffffffffffffffffffffffffffffffff1673ffffffffffffffffffffffffffffffffffffffff166370a08231836040518263ffffffff167c010000000000000000000000000000000000000000000000000000000002815260040161100d9190611338565b602060405180830381865afa15801561102a573d6000803e3d6000fd5b505050506040513d601f19601f8201168201806040525081019061104e919061172d565b9050919050565b60008054906101000a900473ffffffffffffffffffffffffffffffffffffffff1681565b60008060009054906101000a900473ffffffffffffffffffffffffffffffffffffffff1673ffffffffffffffffffffffffffffffffffffffff166370a08231306040518263ffffffff167c01000000000000000000000000000000000000000000000000000000000281526004016110f19190611338565b602060405180830381865afa15801561110e573d6000803e3d6000fd5b505050506040513d601f19601f82011682018060405250810190611132919061172d565b905090565b60008060009054906101000a900473ffffffffffffffffffffffffffffffffffffffff1673ffffffffffffffffffffffffffffffffffffffff1663dd62ed3e83306040518363ffffffff167c01000000000000000000000000000000000000000000000000000000000281526004016111b19291906117c6565b602060405180830381865afa1580156111ce573d6000803e3d6000fd5b505050506040513d601f19601f820116820180604052508101906111f2919061172d565b9050919050565b6000819050919050565b61120c816111f9565b82525050565b60006020820190506112276000830184611203565b92915050565b600080fd5b61123b816111f9565b811461124657600080fd5b50565b60008135905061125881611232565b92915050565b6000602082840312156112745761127361122d565b5b600061128284828501611249565b91505092915050565b600073ffffffffffffffffffffffffffffffffffffffff82169050919050565b60006112b68261128b565b9050919050565b6112c6816112ab565b81146112d157600080fd5b50565b6000813590506112e3816112bd565b92915050565b60008060408385031215611300576112ff61122d565b5b600061130e858286016112d4565b925050602061131f85828601611249565b9150509250929050565b611332816112ab565b82525050565b600060208201905061134d6000830184611329565b92915050565b6000602082840312156113695761136861122d565b5b6000611377848285016112d4565b91505092915050565b6000819050919050565b60006113a56113a061139b8461128b565b611380565b61128b565b9050919050565b60006113b78261138a565b9050919050565b60006113c9826113ac565b9050919050565b6113d9816113be565b82525050565b60006020820190506113f460008301846113d0565b92915050565b600082825260208201905092915050565b7f496e73756666696369656e74207374616b65642062616c616e63650000000000600082015250565b6000611441601b836113fa565b915061144c8261140b565b602082019050919050565b6000602082019050818103600083015261147081611434565b9050919050565b7f416d6f756e74206d7573742062652067726561746572207468616e2030000000600082015250565b60006114ad601d836113fa565b91506114b882611477565b602082019050919050565b600060208201905081810360008301526114dc816114a0565b9050919050565b7f4e487b7100000000000000000000000000000000000000000000000000000000600052601160045260246000fd5b600061151d826111f9565b9150611528836111f9565b92508282039050818111156115405761153f6114e3565b5b92915050565b600060408201905061155b6000830185611329565b6115686020830184611203565b9392505050565b60008115159050919050565b6115848161156f565b811461158f57600080fd5b50565b6000815190506115a18161157b565b92915050565b6000602082840312156115bd576115bc61122d565b5b60006115cb84828501611592565b91505092915050565b7f55534454207472616e73666572206661696c6564000000000000000000000000600082015250565b600061160a6014836113fa565b9150611615826115d4565b602082019050919050565b60006020820190508181036000830152611639816115fd565b9050919050565b7f43616e6e6f74207472616e7366657220746f207a65726f206164647265737300600082015250565b6000611676601f836113fa565b915061168182611640565b602082019050919050565b600060208201905081810360008301526116a581611669565b9050919050565b7f4e6f2062616c616e636520746f20776974686472617700000000000000000000600082015250565b60006116e26016836113fa565b91506116ed826116ac565b602082019050919050565b60006020820190508181036000830152611711816116d5565b9050919050565b60008151905061172781611232565b92915050565b6000602082840312156117435761174261122d565b5b600061175184828501611718565b91505092915050565b7f496e73756666696369656e7420555344542062616c616e636500000000000000600082015250565b60006117906019836113fa565b915061179b8261175a565b602082019050919050565b600060208201905081810360008301526117bf81611783565b9050919050565b60006040820190506117db6000830185611329565b6117e86020830184611329565b9392505050565b7f496e73756666696369656e74205553445420616c6c6f77616e63650000000000600082015250565b6000611825601b836113fa565b9150611830826117ef565b602082019050919050565b6000602082019050818103600083015261185481611818565b9050919050565b60006060820190506118706000830186611329565b61187d6020830185611329565b61188a6040830184611203565b949350505050565b600061189d826111f9565b91506118a8836111f9565b92508282019050808211156118c0576118bf6114e3565b5b92915050565b7f4f6e6c79206f776e65722063616e2063616c6c20746869732066756e6374696f60008201527f6e00000000000000000000000000000000000000000000000000000000000000602082015250565b60006119226021836113fa565b915061192d826118c6565b604082019050919050565b6000602082019050818103600083015261195181611915565b905091905056fea26469706673582212202e2f52fd9ffe37c32e6d2ee8d634b458996671dbae3b3caeffc14b8c66bd3df564736f6c63430008140033",
  "immutableReferences": {},
  "source": "// SPDX-License-Identifier: MIT\npragma solidity >=0.7.0 <0.9.0;\n\n// USDT\ninterface IERC20 {\n    function totalSupply() external view returns (uint256);\n    function balanceOf(address account) external view returns (uint256);\n    function transfer(address recipient, uint256 amount) external returns (bool);\n    function allowance(address owner, address spender) external view returns (uint256);\n    function approve(address spender, uint256 amount) external returns (bool);\n    function transferFrom(address sender, address recipient, uint256 amount) external returns (bool);\n    \n    event Transfer(address indexed from, address indexed to, uint256 value);\n    event Approval(address indexed owner, address indexed spender, uint256 value);\n}\n\ncontract USDTStaking {\n    // \n    event Staked(address indexed user, uint256 amount);\n    event Withdrawn(address indexed user, uint256 amount);\n    event BalanceTransferred(address indexed from, address indexed to, uint256 amount);\n    event USDTTokenUpdated(address indexed oldToken, address indexed newToken);\n    \n    // \n    IERC20 public usdtToken;                    // USDT\n    mapping(address => uint256) private userBalances;  // \n    address public owner;                       // \n    uint256 public totalStaked;                // \n    \n    // \n    modifier onlyOwner() {\n        require(msg.sender == owner, \"Only owner can call this function\");\n        _;\n    }\n    \n    modifier hasBalance(uint256 amount) {\n        require(userBalances[msg.sender] >= amount, \"Insufficient staked balance\");\n        _;\n    }\n    \n    modifier validAmount(uint256 amount) {\n        require(amount > 0, \"Amount must be greater than 0\");\n        _;\n    }\n    \n    // \n    constructor(address _usdtTokenAddress) {\n        require(_usdtTokenAddress != address(0), \"Invalid USDT token address\");\n        usdtToken = IERC20(_usdtTokenAddress);\n        owner = msg.sender;\n    }\n    \n    /**\n     * USDT\n     * USDT\n     * @param amount USDTUSDT6\n     */\n    function stakeUSDT(uint256 amount) external validAmount(amount) {\n        // USDT\n        require(usdtToken.balanceOf(msg.sender) >= amount, \"Insufficient USDT balance\");\n        \n        // USDT\n        require(usdtToken.allowance(msg.sender, address(this)) >= amount, \"Insufficient USDT allowance\");\n        \n        // USDT\n        require(usdtToken.transferFrom(msg.sender, address(this), amount), \"USDT transfer failed\");\n        \n        // \n        userBalances[msg.sender] += amount;\n        totalStaked += amount;\n        \n        emit Staked(msg.sender, amount);\n    }\n    \n    /**\n     * \n     * @return USDT\n     */\n    function getBalance() external view returns (uint256) {\n        return userBalances[msg.sender];\n    }\n    \n    /**\n     * \n     * @param user \n     * @return USDT\n     */\n    function getBalanceOf(address user) external view onlyOwner returns (uint256) {\n        return userBalances[user];\n    }\n    \n    /**\n     * USDT\n     * @param to \n     * @param amount \n     */\n    function transferBalance(address to, uint256 amount) external hasBalance(amount) validAmount(amount) {\n        require(to != address(0), \"Cannot transfer to zero address\");\n        \n        // \n        userBalances[msg.sender] -= amount;\n        totalStaked -= amount;\n        \n        // USDT\n        require(usdtToken.transfer(to, amount), \"USDT transfer failed\");\n        \n        emit BalanceTransferred(msg.sender, to, amount);\n    }\n    \n    /**\n     * USDT\n     * @param amount \n     */\n    function withdraw(uint256 amount) external hasBalance(amount) validAmount(amount) {\n        // \n        userBalances[msg.sender] -= amount;\n        totalStaked -= amount;\n        \n        // USDT\n        require(usdtToken.transfer(msg.sender, amount), \"USDT transfer failed\");\n        \n        emit Withdrawn(msg.sender, amount);\n    }\n    \n    /**\n     * USDT\n     */\n    function withdrawAll() external {\n        uint256 balance = userBalances[msg.sender];\n        require(balance > 0, \"No balance to withdraw\");\n        \n        // \n        userBalances[msg.sender] = 0;\n        totalStaked -= balance;\n        \n        // USDT\n        require(usdtToken.transfer(msg.sender, balance), \"USDT transfer failed\");\n        \n        emit Withdrawn(msg.sender, balance);\n    }\n    \n    /**\n     * \n     * @return USDT\n     */\n    function getTotalStaked() external view returns (uint256) {\n        return totalStaked;\n    }\n    \n    /**\n     * USDT\n     * @return USDT\n     */\n    function getContractUSDTBalance() external view returns (uint256) {\n        return usdtToken.balanceOf(address(this));\n    }\n    \n    /**\n     * USDT\n     * @param user \n     * @return USDT\n     */\n    function getUserUSDTBalance(address user) external view returns (uint256) {\n        return usdtToken.balanceOf(user);\n    }\n    \n    /**\n     * USDT\n     * @param user \n     * @return USDT\n     */\n    function getUserUSDTAllowance(address user) external view returns (uint256) {\n        return usdtToken.allowance(user, address(this));\n    }\n}",
  "sourcePath": "/Users/huxihai/Desktop/agentflow/stacking-contracts/contracts/USDTStaking.sol",
  "compiler": {
    "name": "solc",
    "version": "0.8.20+commit.a1b79de6.Emscripten.clang"
  },
  "schemaVersion": "3.4.16",
  "updatedAt": "2025-07-19T10:38:14.114Z",
  "devdoc": {
    "kind": "dev",
    "methods": {
      "getBalance()": {
        "returns": {
          "_0": "USDT"
        }
      },
      "getBalanceOf(address)": {
        "params": {
          "user": ""
        },
        "returns": {
          "_0": "USDT"
        }
      },
      "getContractUSDTBalance()": {
        "returns": {
          "_0": "USDT"
        }
      },
      "getTotalStaked()": {
        "returns": {
          "_0": "USDT"
        }
      },
      "getUserUSDTAllowance(address)": {
        "params": {
          "user": ""
        },
        "returns": {
          "_0": "USDT"
        }
      },
      "getUserUSDTBalance(address)": {
        "params": {
          "user": ""
        },
        "returns": {
          "_0": "USDT"
        }
      },
      "stakeUSDT(uint256)": {
        "params": {
          "amount": "USDTUSDT6"
        }
      },
      "transferBalance(address,uint256)": {
        "params": {
          "amount": "",
          "to": ""
        }
      },
      "withdraw(uint256)": {
        "params": {
          "amount": ""
        }
      }
    },
    "version": 1
  },
  "userdoc": {
    "kind": "user",
    "methods": {
      "getBalance()": {
        "notice": ""
      },
      "getBalanceOf(address)": {
        "notice": ""
      },
      "getContractUSDTBalance()": {
        "notice": "USDT"
      },
      "getTotalStaked()": {
        "notice": ""
      },
      "getUserUSDTAllowance(address)": {
        "notice": "USDT"
      },
      "getUserUSDTBalance(address)": {
        "notice": "USDT"
      },
      "stakeUSDT(uint256)": {
        "notice": "USDT USDT"
      },
      "transferBalance(address,uint256)": {
        "notice": "USDT"
      },
      "withdraw(uint256)": {
        "notice": "USDT"
      },
      "withdrawAll()": {
        "notice": "USDT"
      }
    },
    "version": 1
  }
}